{
  "_format": "hh-sol-artifact-1",
  "contractName": "Token",
  "sourceName": "contracts/Token.sol",
  "abi": [
    {
      "inputs": [],
      "stateMutability": "nonpayable",
      "type": "constructor"
    },
    {
      "inputs": [
        {
          "internalType": "address",
          "name": "_of",
          "type": "address"
        }
      ],
      "name": "balanceOf",
      "outputs": [
        {
          "internalType": "uint256",
          "name": "",
          "type": "uint256"
        }
      ],
      "stateMutability": "view",
      "type": "function"
    },
    {
      "inputs": [],
      "name": "name",
      "outputs": [
        {
          "internalType": "string",
          "name": "",
          "type": "string"
        }
      ],
      "stateMutability": "view",
      "type": "function"
    },
    {
      "inputs": [],
      "name": "owner",
      "outputs": [
        {
          "internalType": "address",
          "name": "",
          "type": "address"
        }
      ],
      "stateMutability": "view",
      "type": "function"
    },
    {
      "inputs": [],
      "name": "symbol",
      "outputs": [
        {
          "internalType": "string",
          "name": "",
          "type": "string"
        }
      ],
      "stateMutability": "view",
      "type": "function"
    },
    {
      "inputs": [],
      "name": "totalSupply",
      "outputs": [
        {
          "internalType": "uint256",
          "name": "",
          "type": "uint256"
        }
      ],
      "stateMutability": "view",
      "type": "function"
    },
    {
      "inputs": [
        {
          "internalType": "address",
          "name": "_to",
          "type": "address"
        },
        {
          "internalType": "uint256",
          "name": "ammount",
          "type": "uint256"
        }
      ],
      "name": "tranfer",
      "outputs": [],
      "stateMutability": "nonpayable",
      "type": "function"
    }
  ],
  "bytecode": "0x60806040526040518060400160405280600581526020017f506174696c000000000000000000000000000000000000000000000000000000815250600090816200004a9190620003cf565b506040518060400160405280600381526020017f50544c000000000000000000000000000000000000000000000000000000000081525060019081620000919190620003cf565b506103e8600255348015620000a557600080fd5b5033600360006101000a81548173ffffffffffffffffffffffffffffffffffffffff021916908373ffffffffffffffffffffffffffffffffffffffff16021790555060025460046000600360009054906101000a900473ffffffffffffffffffffffffffffffffffffffff1673ffffffffffffffffffffffffffffffffffffffff1673ffffffffffffffffffffffffffffffffffffffff16815260200190815260200160002081905550620004b6565b600081519050919050565b7f4e487b7100000000000000000000000000000000000000000000000000000000600052604160045260246000fd5b7f4e487b7100000000000000000000000000000000000000000000000000000000600052602260045260246000fd5b60006002820490506001821680620001d757607f821691505b602082108103620001ed57620001ec6200018f565b5b50919050565b60008190508160005260206000209050919050565b60006020601f8301049050919050565b600082821b905092915050565b600060088302620002577fffffffffffffffffffffffffffffffffffffffffffffffffffffffffffffffff8262000218565b62000263868362000218565b95508019841693508086168417925050509392505050565b6000819050919050565b6000819050919050565b6000620002b0620002aa620002a4846200027b565b62000285565b6200027b565b9050919050565b6000819050919050565b620002cc836200028f565b620002e4620002db82620002b7565b84845462000225565b825550505050565b600090565b620002fb620002ec565b62000308818484620002c1565b505050565b5b81811015620003305762000324600082620002f1565b6001810190506200030e565b5050565b601f8211156200037f576200034981620001f3565b620003548462000208565b8101602085101562000364578190505b6200037c620003738562000208565b8301826200030d565b50505b505050565b600082821c905092915050565b6000620003a46000198460080262000384565b1980831691505092915050565b6000620003bf838362000391565b9150826002028217905092915050565b620003da8262000155565b67ffffffffffffffff811115620003f657620003f562000160565b5b620004028254620001be565b6200040f82828562000334565b600060209050601f83116001811462000447576000841562000432578287015190505b6200043e8582620003b1565b865550620004ae565b601f1984166200045786620001f3565b60005b8281101562000481578489015182556001820191506020850194506020810190506200045a565b86831015620004a157848901516200049d601f89168262000391565b8355505b6001600288020188555050505b505050505050565b61056280620004c66000396000f3fe608060405234801561001057600080fd5b50600436106100625760003560e01c806306fdde031461006757806318160ddd1461008557806370a08231146100a35780638da5cb5b146100d357806395d89b41146100f1578063c610bb071461010f575b600080fd5b61006f61012b565b60405161007c9190610350565b60405180910390f35b61008d6101b9565b60405161009a919061038b565b60405180910390f35b6100bd60048036038101906100b89190610409565b6101bf565b6040516100ca919061038b565b60405180910390f35b6100db610208565b6040516100e89190610445565b60405180910390f35b6100f961022e565b6040516101069190610350565b60405180910390f35b6101296004803603810190610124919061048c565b6102bc565b005b60008054610138906104fb565b80601f0160208091040260200160405190810160405280929190818152602001828054610164906104fb565b80156101b15780601f10610186576101008083540402835291602001916101b1565b820191906000526020600020905b81548152906001019060200180831161019457829003601f168201915b505050505081565b60025481565b6000600460008373ffffffffffffffffffffffffffffffffffffffff1673ffffffffffffffffffffffffffffffffffffffff168152602001908152602001600020549050919050565b600360009054906101000a900473ffffffffffffffffffffffffffffffffffffffff1681565b6001805461023b906104fb565b80601f0160208091040260200160405190810160405280929190818152602001828054610267906104fb565b80156102b45780601f10610289576101008083540402835291602001916102b4565b820191906000526020600020905b81548152906001019060200180831161029757829003601f168201915b505050505081565b5050565b600081519050919050565b600082825260208201905092915050565b60005b838110156102fa5780820151818401526020810190506102df565b60008484015250505050565b6000601f19601f8301169050919050565b6000610322826102c0565b61032c81856102cb565b935061033c8185602086016102dc565b61034581610306565b840191505092915050565b6000602082019050818103600083015261036a8184610317565b905092915050565b6000819050919050565b61038581610372565b82525050565b60006020820190506103a0600083018461037c565b92915050565b600080fd5b600073ffffffffffffffffffffffffffffffffffffffff82169050919050565b60006103d6826103ab565b9050919050565b6103e6816103cb565b81146103f157600080fd5b50565b600081359050610403816103dd565b92915050565b60006020828403121561041f5761041e6103a6565b5b600061042d848285016103f4565b91505092915050565b61043f816103cb565b82525050565b600060208201905061045a6000830184610436565b92915050565b61046981610372565b811461047457600080fd5b50565b60008135905061048681610460565b92915050565b600080604083850312156104a3576104a26103a6565b5b60006104b1858286016103f4565b92505060206104c285828601610477565b9150509250929050565b7f4e487b7100000000000000000000000000000000000000000000000000000000600052602260045260246000fd5b6000600282049050600182168061051357607f821691505b602082108103610526576105256104cc565b5b5091905056fea264697066735822122028d1eee20209258676123199b468c97764e889a9887b61088164b2a790cc6e2164736f6c63430008110033",
  "linkReferences": {},
  "deployedLinkReferences": {}
}